:060000000A128A110E280D
:10000800FE00030EF2000408F3000A08F4000A12C6
:100018008A11D6290A128A11112883133030FD005B
:100028000230FE003E30FF00203084000A128A11A0
:100038002F220A128A11B601B701B801F501F6019B
:10004800F701F80183010A128A112A280A128A1173
:1000580007220A128A110A128A1159210A128A11D0
:10006800831203133803031D3A283B2862283708F4
:10007800031D3F28402862283608031D44284528C8
:100088006228B201B3010A128A11F8200A128A11F1
:10009800013083120313B2070318B30A0030B30701
:1000A8003308803AFF0083307F02031D5D28E83063
:1000B8003202031C6028612847282F283808031DAE
:1000C800662867288E283708031D6B286C288E2819
:1000D8003603031D702871288E28B401B5010A1251
:1000E8008A1197200A128A11013083120313B40768
:1000F8000318B50A0030B5073508803AFF00833089
:100108007F02031D8928E8303402031C8C288D28BF
:1001180073282F280A128A114E220A128A112F28B0
:100128000A128A110E288312031328088500C73083
:1001380083120313B000A028B00B9F28A3288312B2
:10014800031327088500C73083120313B000AC28B7
:10015800B00BAB28AF288312031326088500C730DD
:1001680083120313B000B828B00BB728BB2883123A
:10017800031325088500C73083120313B000C42871
:10018800B00BC328C7288312031324088500C7307F
:1001980083120313B000D028B00BCF28D3288312C2
:1001A800031323088500C73083120313B000DC282B
:1001B800B00BDB28DF288312031322088500C73021
:1001C80083120313B000E828B00BE728EB2883124A
:1001D800031321088500C73083120313B000F428E5
:1001E800B00BF328F72808008312031329088500A9
:1001F800C73083120313B0000129B00B002904296A
:10020800831203132A088500C73083120313B00032
:100218000D29B00B0C291029831203132B08850014
:10022800C73083120313B0001929B00B18291C29F1
:10023800831203132C088500C73083120313B00000
:100248002529B00B24292829831203132D0885009A
:10025800C73083120313B0003129B00B3029342979
:10026800831203132E088500C73083120313B000CE
:100278003D29B00B3C294029831203132F08850020
:10028800C73083120313B0004929B00B48294C2901
:100298008312031330088500C73083120313B0009C
:1002A8005529B00B5429582908007803031D5D29E6
:1002B8005E29732983120313061863296429732995
:1002C800F8010130B000300888070130B00030086C
:1002D800B80702303802031C722973297629831261
:1002E8000313B8017703031D7A297B298A29861805
:1002F8007E297F298A29F7010130B0003008B70725
:1003080002303702031C89298A298B29B701760311
:10031800031D8F2990299F290619932994299F291C
:10032800F6010130B0003008B60702303602031C6F
:100338009E299F29A029B6010800C0298316031306
:100348000F088F3940388F000F14D52983160313EF
:100358000F088F3950388F000F14D52983160313CF
:100368000F088F3960388F000F14D5297030831625
:1003780003138F040F14D529831203133108003A8D
:100388000319C729D5293008013A0319A229033AC4
:100398000319AA29063A0319B2290C3A0319BA29EA
:1003A800D52908000B1CD929DA29FE29E829F801E2
:1003B800F701F601FD29F801F80AFD29F701F70A06
:1003C800FD29F601F60AFD29831203130608F00039
:1003D800F1017108003A0319F229DB297008FC3A87
:1003E8000319E529013A0319E229033A0319DF2918
:1003F800DB290B1074088A0073088400720E8300CE
:10040800FE0E7E0E090083160317880189018316E4
:1004180003138501013086008801831203138501C7
:10042800860188010430B0000030B1000A128A1138
:10043800A1210A128A1183160313811395148B17AD
:100448000B178B150B1016149614161508007E083A
:100458008A007F0882000A128A112B220A128A1146
:100468008000840A04087D0603190034FF0A031972
:10047800FE0A2F2A093401340334023406340434C2
:100488000C34083408340C3404340634023403348D
:0C049800013409348312031385010800AD
:04400E00D420FF3F7C
:00000001FF
