:060000000A128A110E280D
:10000800FE00030EF6000408F7000A08F8000A12BA
:100018008A11CE290A128A11112883133030FD0063
:100028000230FE002E30FF00203084000A128A11B0
:100038001F220A128A11B401F001F101F201F30141
:10004800F401F50183010A128A112A280A128A1179
:10005800F7210A128A110A128A1155210A128A11E5
:100068004928F101F00183120313B001B1010A120A
:100078008A11FC200A128A11013083120313B00777
:100088000318B10A0030B1073B287203031D4D283D
:100098004E2879287108031D52285328792870089A
:1000A80003195728582835287928F201F1018312B5
:1000B8000313B201B3010A128A11A3200A128A118A
:1000C800013083120313B2070318B30A0030B307D1
:1000D8003308803AFF0083307F02031D7528E8301B
:1000E8003202031C782879285F287208031D7D28AE
:1000F8007E2890287108031D822883289028700381
:1001080003198728882859289028F201F0010A1233
:100118008A113E220A128A117208031D9428952812
:100128002F287103031D99289A282F28700803196E
:100138009E289F2889282F280A128A110E288312A0
:10014800031328088500C730F900AA28F90BA92845
:10015800AD28AE288312031327088500C730F9009D
:10016800B528F90BB428B828B92883120313260830
:100178008500C730F900C028F90BBF28C328C42858
:100188008312031325088500C730F900CB28F90B23
:10019800CA28CE28CF288312031324088500C73025
:1001A800F900D628F90BD528D928DA2883120313A1
:1001B80023088500C730F900E128F90BE028E42876
:1001C800E5288312031322088500C730F900EC28BC
:1001D800F90BEB28EF28F028831203132108850078
:1001E800C730F900F728F90BF628FA28FB28080089
:1001F8008312031329088500C730F9000329F90B76
:10020800022906290729831203132A088500C73003
:10021800F9000E29F90B0D2911291229831203134C
:100228002B088500C730F9001929F90B18291C2952
:100238001D29831203132C088500C730F9002429CF
:10024800F90B232927292829831203132D08850050
:10025800C730F9002F29F90B2E29322933298312A7
:1002680003132E088500C730F9003A29F90B3929FC
:100278003D293E29831203132F088500C730F90052
:100288004529F90B442948294929831203133008C1
:100298008500C730F9005029F90B4F2953295429F3
:1002A80008007503031D59295A296F29831203135E
:1002B80006185F2960296F29F5010130F9007908CE
:1002C80088070130F9007908F20702307202031C2E
:1002D8006E296F297029F2017403031D7429752989
:1002E80086298312031386187A297B298629F40123
:1002F8000130F9007908F10702307102031C8529E1
:1003080086298729F1017303031D8B298C299D29CF
:10031800831203130619912992299D29F3010130AB
:10032800F9007908F00702307002031C9C299D2906
:100338009E29F0010800F900BF29831603130F084E
:100348008F3940388F000F14CD29831603130F08F7
:100358008F3950388F000F14CD29831603130F08D7
:100368008F3960388F000F14CD297030831603132E
:100378008F040F14CD297908013A0319A129033AEA
:100388000319A929063A0319B1290C3A0319B929FD
:10039800CD2908000B1CD129D229EE29E029F50125
:1003A800F401F301ED29F501F50AED29F401F40A48
:1003B800ED29F301F30AED29831203130608FC3A29
:1003C8000319DD29013A0319DA29033A0319D72950
:1003D800D3290B1078088A0077088400760E8300EA
:1003E800FE0E7E0E09008316031788018901831605
:1003F8000313850106148614061588018312031356
:1004080085018601880104300A128A119F210A1287
:100418008A118316031381131514951415158B1758
:100428000B178B150B1016149614161508007E085A
:100438008A007F0882000A128A111B220A128A1176
:100448008000840A04087D0603190034FF0A031992
:10045800FE0A1F2A093401340334023406340434F2
:100468000C34083408340C340434063402340334AD
:0C047800013409348312031385010800CD
:04400E00D420FF3F7C
:00000001FF
