:060000000A128A110E280D
:10000800FE00030EF6000408F7000A08F8000A12BA
:100018008A11C4290A128A11112883133030FD006D
:100028000230FE002430FF00203084000A128A11BA
:1000380015220A128A11B401F001F101F201F3014B
:10004800F401F50183010A128A112A280A128A1179
:10005800ED210A128A110A128A114B210A128A11F9
:100068007203031D3828392862287108031D3D28AA
:100078003E2862287008031D4228432862288312FC
:100088000313B001B1010A128A11F2200A128A116F
:10009800013083120313B0070318B10A0030B10707
:1000A8003108803AFF0083307F02031D5D28E83065
:1000B8003002031C6028612847282F287208031D76
:1000C8006628672890287108031D6B286C289028DB
:1000D8007003031D70287128902883120313B2013E
:1000E800B3010A128A1199200A128A110130831267
:1000F8000313B2070318B30A0030B3073308803A72
:10010800FF0083307F02031D8B28E8303202031C76
:100118008E288F2875282F280A128A1134220A124D
:100128008A112F280A128A110E288312031328080D
:100138008500C730F900A028F90B9F28A328A42818
:100148008312031327088500C730F900AB28F90B81
:10015800AA28AE28AF288312031326088500C730C3
:10016800F900B628F90BB528B928BA288312031361
:1001780025088500C730F900C128F90BC028C42814
:10018800C5288312031324088500C730F900CC283A
:10019800F90BCB28CF28D028831203132308850016
:1001A800C730F900D728F90BD628DA28DB288312BC
:1001B800031322088500C730F900E228F90BE1286B
:1001C800E528E6288312031321088500C730F900C3
:1001D800ED28F90BEC28F028F12808008312031306
:1001E80029088500C730F900F928F90BF828FC28F8
:1001F800FD28831203132A088500C730F900042953
:10020800F90B032907290829831203132B088500F2
:10021800C730F9000F29F90B0E2912291329831267
:1002280003132C088500C730F9001A29F90B19297E
:100238001D291E29831203132D088500C730F900D4
:100248002529F90B242928292929831203132E0883
:100258008500C730F9003029F90B2F2933293429B3
:10026800831203132F088500C730F9003B29F90BC7
:100278003A293E293F298312031330088500C730E5
:10028800F9004629F90B452949294A290800750327
:10029800031D4F2950296529831203130618552970
:1002A80056296529F5010130F900790888070130D8
:1002B800F9007908F20702307202031C64296529E3
:1002C8006629F2017403031D6A296B297C298312AC
:1002D80003138618702971297C29F4010130F9006B
:1002E8007908F10702307102031C7B297C297D29DA
:1002F800F1017303031D81298229932983120313B2
:100308000619872988299329F3010130F90079080A
:10031800F00702307002031C922993299429F001F6
:100328000800F900B529831603130F088F394038E0
:100338008F000F14C329831603130F088F39503801
:100348008F000F14C329831603130F088F396038E1
:100358008F000F14C3297030831603138F040F14F2
:10036800C3297908013A03199729033A03199F29E0
:10037800063A0319A7290C3A0319AF29C32908001B
:100388000B1CC729C829E429D629F501F401F30172
:10039800E329F501F50AE329F401F40AE329F30155
:1003A800F30AE329831203130608FC3A0319D32935
:1003B800013A0319D029033A0319CD29C9290B1089
:1003C80078088A0077088400760E8300FE0E7E0E79
:1003D8000900831603178801890183160313850111
:1003E80006148614061588018312031385018601F5
:1003F800880104300A128A1195210A128A1183167B
:10040800031381131514951415158B170B178B15DA
:100418000B1016149614161508007E088A007F081B
:1004280082000A128A1111220A128A118000840A93
:1004380004087D0603190034FF0A0319FE0A152A69
:100448000934013403340234063404340C340834D7
:1004580008340C34043406340234033401340934C7
:08046800831203138501080053
:04400E00D420FF3F7C
:00000001FF
