:060000000A128A110E280D
:10000800FE00030EF7000408F8000A08F9000A12B7
:100018008A11B7280A128A11112883133030FD007B
:100028000030FE00EC30FF00203084000A128A11F4
:10003800DD200A128A11F001F101F201F301F40145
:10004800F501F60183010A128A118C288316031719
:100058008801890183160313850106148614061581
:100068008615061686160617861788018312031347
:1000780085018601880104300A128A115D200A125E
:100088008A118316031381131514951415159515E4
:1000980015169516151795178B170B178B150B102B
:1000A80016149614161596151616961616179617EC
:1000B8000800FA007D28831603130F088F3940388B
:1000C8008F000F148B28831603130F088F395038AD
:1000D8008F000F148B28831603130F088F3960388D
:1000E8008F000F148B287030831603138F040F149E
:1000F8008B287A08013A03195F28033A03196728FD
:10010800063A03196F280C3A031977288B28080038
:100118000A128A112A200A128A118312031305145B
:10012800063083120313B2001330B100AD30B000B3
:10013800B00B9C28B10B9C28B20B9C28831203138C
:100148000510063083120313B2001330B100AD302E
:10015800B000B00BAD28B10BAD28B20BAD2891287B
:100168000A128A110E280B1CBA28BB28D028C528C9
:10017800F601F501CF28F601F60ACF28F501F50AB0
:10018800CF28831203130608FD3A0319C228033A3D
:100198000319BF28BC280B1079088A007808840046
:1001A800770E8300FE0E7E0E09007E088A007F0807
:1001B80082000A128A11D9200A128A118000840A40
:1001C80004087D0603190034FF0A0319FE0ADD2816
:1001D8000934013403340234063404340C3408344A
:1001E80008340C340434063402340334013409343A
:04400E00D420FF3F7C
:00000001FF
