:060000000A128A110E280D
:10000800FE00030EF2000408F3000A08F4000A12C6
:100018008A1105290A128A111128F601F701F80137
:1000280083010A128A11B028831203132308803A25
:10003800FF0083307F02031D2328E8302202031CBF
:1000480026282728282875288312031388170813B9
:1000580088120816063083120313A1002F30A0005F
:10006800A00B3428A10B34283928831203138817CE
:10007800081788120812063083120313A1002F30C4
:10008800A000A00B4528A10B45284A28831203137A
:100098008813081788160812063083120313A10064
:1000A8002F30A000A00B5628A10B56285B288312DE
:1000B80003138813081388160816063083120313CF
:1000C800A1002F30A000A00B6728A10B67286C287F
:1000D800013083120313A2070318A30A0030A307F1
:1000E8001828F6010800F5009728831603130F084F
:1000F8008F3940388F000F14AF28831603130F0869
:100108008F3950388F000F14AF28831603130F0848
:100118008F3960388F000F14AF287030831603139F
:100128008F040F14AF28750883120313A000A101D0
:100138002108003A0319A128AF282008013A031919
:100148007928033A03198128063A031989280C3AB1
:1001580003199128AF2808000A128A11E4200A120C
:100168008A117803031DB928BA28C82883120313F3
:100178008618BF28C028C828F8010130A400240820
:10018800F60776088500C928F6017603031DCD28F1
:10019800CE28D4280A128A1118200A128A11B528E2
:1001A80002307606031DD928DA28B528F6010A1286
:1001B8008A1126210A128A11B5280A128A110E28D4
:1001C80083160317880189018316031306148614FE
:1001D800880185018312031385018601880108308F
:1001E8000A128A1177200A128A11831603138113BF
:1001F800151495148B170B178B150B1016149614D2
:1002080008000B1C082909291D290D29F801F80ADD
:100218001C29831203130608F000F1017108003A43
:10022800031917291C297008FD3A03190A291C29E2
:100238000B1074088A0073088400720E8300FE0E87
:0C0248007E0E09008312031388010800D9
:04400E00D420FF3F7C
:00000001FF
