:060000000A128A110E280D
:10000800FE00030EF2000408F3000A08F4000A12C6
:100018008A1126290A128A111128F901FA01FB010D
:1000280083010A128A11F3287808803AFF00833086
:100038007F02031D2128E8307702031C2428252885
:1000480026286928831203138813081388160816AC
:100058000630F6003030F500F50B3028F60B302866
:100068000000831203138813081788160812063035
:10007800F6003030F500F50B3F28F60B3F2800005E
:100088008312031388170817881208120630F6001F
:100098003030F500F50B4E28F60B4E280000831281
:1000A800031388170813881208160630F600303034
:1000B800F500F50B5D28F60B5D2800000130F70709
:1000C8000318F80A0030F807182808007808803A5A
:1000D800FF0083307F02031D7328E8307702031C7A
:1000E800762877287828BB288312031388170813E3
:1000F800881208160630F6003030F500F50B822815
:10010800F60B822800008312031388170817881239
:1001180008120630F6003030F500F50B9128F60B82
:1001280091280000831203138813081788160812F1
:100138000630F6003030F500F50BA028F60BA028A5
:100148000000831203138813081388160816063054
:10015800F6003030F500F50BAF28F60BAF2800009D
:100168000130F7070318F80A0030F8076A28080072
:10017800F700DC28831603130F088F3940388F00E7
:100188000F14F228831603130F088F3950388F0085
:100198000F14F228831603130F088F3960388F0065
:1001A8000F14F2287030831603138F040F14F228EB
:1001B8007708F500F6017608003A0319E428F228D2
:1001C8007508013A0319BE28033A0319C628063AE6
:1001D8000319CE280C3A0319D628F22808000A1267
:1001E8008A114D210A128A117B03031DFC28FD2860
:1001F8000D29831203138618022903290D29061DC8
:10020800062907290D29FB010A128A116A200A12F8
:100218008A117A03031D11291229F828831203135E
:10022800061917291829F828861C1B291C29F828BB
:10023800FA010A128A1118200A128A11F8280A12D9
:100248008A110E280B1C29292A2944293129FB0146
:10025800FB0A4329FA01FA0A432983120313060801
:10026800F000F1017108003A03193B29432970088D
:10027800FB3A03192E29063A03192B2943290B1097
:1002880074088A0073088400720E8300FE0E7E0EC6
:10029800090083160317880189018316031386143E
:1002A80006158801890183120313890186018801D3
:1002B80008300A128A11BC200A128A118316031305
:1002C8008113951415158B170B178B150B10961496
:0402D80016150800EF
:04400E00D420FF3F7C
:00000001FF
